{
  "contractName": "OrgRegistry",
  "abi": [
    {
      "inputs": [
        {
          "internalType": "address",
          "name": "_erc1820",
          "type": "address"
        }
      ],
      "stateMutability": "nonpayable",
      "type": "constructor"
    },
    {
      "anonymous": false,
      "inputs": [
        {
          "indexed": true,
          "internalType": "address",
          "name": "previousOwner",
          "type": "address"
        },
        {
          "indexed": true,
          "internalType": "address",
          "name": "newOwner",
          "type": "address"
        }
      ],
      "name": "OwnershipTransferred",
      "type": "event"
    },
    {
      "anonymous": false,
      "inputs": [
        {
          "indexed": false,
          "internalType": "bytes32",
          "name": "_name",
          "type": "bytes32"
        },
        {
          "indexed": false,
          "internalType": "address",
          "name": "_address",
          "type": "address"
        },
        {
          "indexed": false,
          "internalType": "bytes",
          "name": "_messagingEndpoint",
          "type": "bytes"
        },
        {
          "indexed": false,
          "internalType": "bytes",
          "name": "_whisperKey",
          "type": "bytes"
        },
        {
          "indexed": false,
          "internalType": "bytes",
          "name": "_zkpPublicKey",
          "type": "bytes"
        },
        {
          "indexed": false,
          "internalType": "bytes",
          "name": "_metadata",
          "type": "bytes"
        }
      ],
      "name": "RegisterOrg",
      "type": "event"
    },
    {
      "anonymous": false,
      "inputs": [
        {
          "indexed": false,
          "internalType": "bytes32",
          "name": "_name",
          "type": "bytes32"
        },
        {
          "indexed": false,
          "internalType": "address",
          "name": "_address",
          "type": "address"
        },
        {
          "indexed": false,
          "internalType": "bytes",
          "name": "_messagingEndpoint",
          "type": "bytes"
        },
        {
          "indexed": false,
          "internalType": "bytes",
          "name": "_whisperKey",
          "type": "bytes"
        },
        {
          "indexed": false,
          "internalType": "bytes",
          "name": "_zkpPublicKey",
          "type": "bytes"
        },
        {
          "indexed": false,
          "internalType": "bytes",
          "name": "_metadata",
          "type": "bytes"
        }
      ],
      "name": "UpdateOrg",
      "type": "event"
    },
    {
      "inputs": [],
      "name": "getManager",
      "outputs": [
        {
          "internalType": "address",
          "name": "",
          "type": "address"
        }
      ],
      "stateMutability": "view",
      "type": "function"
    },
    {
      "inputs": [
        {
          "internalType": "address",
          "name": "addr",
          "type": "address"
        },
        {
          "internalType": "string",
          "name": "_interfaceLabel",
          "type": "string"
        }
      ],
      "name": "interfaceAddr",
      "outputs": [
        {
          "internalType": "address",
          "name": "",
          "type": "address"
        }
      ],
      "stateMutability": "view",
      "type": "function"
    },
    {
      "inputs": [
        {
          "internalType": "uint256",
          "name": "",
          "type": "uint256"
        }
      ],
      "name": "orgs",
      "outputs": [
        {
          "internalType": "address",
          "name": "orgAddress",
          "type": "address"
        },
        {
          "internalType": "bytes32",
          "name": "name",
          "type": "bytes32"
        },
        {
          "internalType": "bytes",
          "name": "messagingEndpoint",
          "type": "bytes"
        },
        {
          "internalType": "bytes",
          "name": "whisperKey",
          "type": "bytes"
        },
        {
          "internalType": "bytes",
          "name": "zkpPublicKey",
          "type": "bytes"
        },
        {
          "internalType": "bytes",
          "name": "metadata",
          "type": "bytes"
        }
      ],
      "stateMutability": "view",
      "type": "function"
    },
    {
      "inputs": [],
      "name": "owner",
      "outputs": [
        {
          "internalType": "address",
          "name": "",
          "type": "address"
        }
      ],
      "stateMutability": "view",
      "type": "function"
    },
    {
      "inputs": [],
      "name": "renounceOwnership",
      "outputs": [],
      "stateMutability": "nonpayable",
      "type": "function"
    },
    {
      "inputs": [
        {
          "internalType": "bytes4",
          "name": "interfaceId",
          "type": "bytes4"
        }
      ],
      "name": "supportsInterface",
      "outputs": [
        {
          "internalType": "bool",
          "name": "",
          "type": "bool"
        }
      ],
      "stateMutability": "view",
      "type": "function"
    },
    {
      "inputs": [
        {
          "internalType": "address",
          "name": "newOwner",
          "type": "address"
        }
      ],
      "name": "transferOwnership",
      "outputs": [],
      "stateMutability": "nonpayable",
      "type": "function"
    },
    {
      "inputs": [],
      "name": "setInterfaces",
      "outputs": [
        {
          "internalType": "bool",
          "name": "",
          "type": "bool"
        }
      ],
      "stateMutability": "nonpayable",
      "type": "function"
    },
    {
      "inputs": [],
      "name": "getInterfaces",
      "outputs": [
        {
          "internalType": "bytes4",
          "name": "",
          "type": "bytes4"
        }
      ],
      "stateMutability": "pure",
      "type": "function"
    },
    {
      "inputs": [
        {
          "internalType": "bytes32",
          "name": "interfaceHash",
          "type": "bytes32"
        },
        {
          "internalType": "address",
          "name": "addr",
          "type": "address"
        }
      ],
      "name": "canImplementInterfaceForAddress",
      "outputs": [
        {
          "internalType": "bytes32",
          "name": "",
          "type": "bytes32"
        }
      ],
      "stateMutability": "view",
      "type": "function"
    },
    {
      "inputs": [
        {
          "internalType": "address",
          "name": "_newManager",
          "type": "address"
        }
      ],
      "name": "assignManager",
      "outputs": [],
      "stateMutability": "nonpayable",
      "type": "function"
    },
    {
      "inputs": [
        {
          "internalType": "address",
          "name": "_address",
          "type": "address"
        },
        {
          "internalType": "bytes32",
          "name": "_name",
          "type": "bytes32"
        },
        {
          "internalType": "bytes",
          "name": "_messagingEndpoint",
          "type": "bytes"
        },
        {
          "internalType": "bytes",
          "name": "_whisperKey",
          "type": "bytes"
        },
        {
          "internalType": "bytes",
          "name": "_zkpPublicKey",
          "type": "bytes"
        },
        {
          "internalType": "bytes",
          "name": "_metadata",
          "type": "bytes"
        }
      ],
      "name": "registerOrg",
      "outputs": [
        {
          "internalType": "bool",
          "name": "",
          "type": "bool"
        }
      ],
      "stateMutability": "nonpayable",
      "type": "function"
    },
    {
      "inputs": [
        {
          "internalType": "address",
          "name": "_address",
          "type": "address"
        },
        {
          "internalType": "bytes32",
          "name": "_name",
          "type": "bytes32"
        },
        {
          "internalType": "bytes",
          "name": "_messagingEndpoint",
          "type": "bytes"
        },
        {
          "internalType": "bytes",
          "name": "_whisperKey",
          "type": "bytes"
        },
        {
          "internalType": "bytes",
          "name": "_zkpPublicKey",
          "type": "bytes"
        },
        {
          "internalType": "bytes",
          "name": "_metadata",
          "type": "bytes"
        }
      ],
      "name": "updateOrg",
      "outputs": [
        {
          "internalType": "bool",
          "name": "",
          "type": "bool"
        }
      ],
      "stateMutability": "nonpayable",
      "type": "function"
    },
    {
      "inputs": [
        {
          "internalType": "bytes32",
          "name": "_groupName",
          "type": "bytes32"
        },
        {
          "internalType": "address",
          "name": "_tokenAddress",
          "type": "address"
        },
        {
          "internalType": "address",
          "name": "_shieldAddress",
          "type": "address"
        },
        {
          "internalType": "address",
          "name": "_verifierAddress",
          "type": "address"
        }
      ],
      "name": "registerInterfaces",
      "outputs": [
        {
          "internalType": "bool",
          "name": "",
          "type": "bool"
        }
      ],
      "stateMutability": "nonpayable",
      "type": "function"
    },
    {
      "inputs": [],
      "name": "getOrgCount",
      "outputs": [
        {
          "internalType": "uint256",
          "name": "",
          "type": "uint256"
        }
      ],
      "stateMutability": "view",
      "type": "function"
    },
    {
      "inputs": [
        {
          "internalType": "address",
          "name": "_address",
          "type": "address"
        }
      ],
      "name": "getOrg",
      "outputs": [
        {
          "internalType": "address",
          "name": "",
          "type": "address"
        },
        {
          "internalType": "bytes32",
          "name": "",
          "type": "bytes32"
        },
        {
          "internalType": "bytes",
          "name": "",
          "type": "bytes"
        },
        {
          "internalType": "bytes",
          "name": "",
          "type": "bytes"
        },
        {
          "internalType": "bytes",
          "name": "",
          "type": "bytes"
        },
        {
          "internalType": "bytes",
          "name": "",
          "type": "bytes"
        }
      ],
      "stateMutability": "view",
      "type": "function"
    },
    {
      "inputs": [],
      "name": "getInterfaceAddresses",
      "outputs": [
        {
          "internalType": "bytes32[]",
          "name": "",
          "type": "bytes32[]"
        },
        {
          "internalType": "address[]",
          "name": "",
          "type": "address[]"
        },
        {
          "internalType": "address[]",
          "name": "",
          "type": "address[]"
        },
        {
          "internalType": "address[]",
          "name": "",
          "type": "address[]"
        }
      ],
      "stateMutability": "view",
      "type": "function"
    }
  ],
  "bytecode": "0x60806040523480156200001157600080fd5b50604051620033363803806200333683398181016040528101906200003791906200044d565b8060006200004a620001b260201b60201c565b9050806000806101000a81548173ffffffffffffffffffffffffffffffffffffffff021916908373ffffffffffffffffffffffffffffffffffffffff1602179055508073ffffffffffffffffffffffffffffffffffffffff16600073ffffffffffffffffffffffffffffffffffffffff167f8be0079c531659141344cd1fd0a4f28419497f9722a3daafe3b4186f6b6457e060405160405180910390a350620001006301ffc9a760e01b620001ba60201b60201c565b620001106200029260201b60201c565b5080600260006101000a81548173ffffffffffffffffffffffffffffffffffffffff021916908373ffffffffffffffffffffffffffffffffffffffff16021790555050620001636200029260201b60201c565b50620001ab6040518060400160405280600c81526020017f494f726752656769737472790000000000000000000000000000000000000000815250306200036f60201b60201c565b50620006a5565b600033905090565b63ffffffff60e01b817bffffffffffffffffffffffffffffffffffffffffffffffffffffffff1916141562000226576040517f08c379a00000000000000000000000000000000000000000000000000000000081526004016200021d90620005ac565b60405180910390fd5b6001806000837bffffffffffffffffffffffffffffffffffffffffffffffffffffffff19167bffffffffffffffffffffffffffffffffffffffffffffffffffffffff1916815260200190815260200160002060006101000a81548160ff02191690831515021790555050565b6000620002a4620001b260201b60201c565b73ffffffffffffffffffffffffffffffffffffffff166000809054906101000a900473ffffffffffffffffffffffffffffffffffffffff1673ffffffffffffffffffffffffffffffffffffffff161462000335576040517f08c379a00000000000000000000000000000000000000000000000000000000081526004016200032c90620005ce565b60405180910390fd5b6200036863df68b63360e01b6323d2625360e01b637084a4a960e01b635a1c2eb360e01b181818620001ba60201b60201c565b6001905090565b60008260405160200162000384919062000556565b604051602081830303815290604052805190602001209050600260009054906101000a900473ffffffffffffffffffffffffffffffffffffffff1673ffffffffffffffffffffffffffffffffffffffff166329965a1d3083856040518463ffffffff1660e01b8152600401620003fd939291906200056f565b600060405180830381600087803b1580156200041857600080fd5b505af11580156200042d573d6000803e3d6000fd5b50505050505050565b60008151905062000447816200068b565b92915050565b6000602082840312156200046057600080fd5b6000620004708482850162000436565b91505092915050565b620004848162000617565b82525050565b62000495816200062b565b82525050565b6000620004a882620005f0565b620004b481856200060c565b9350620004c681856020860162000655565b80840191505092915050565b6000620004e1601c83620005fb565b91507f4552433136353a20696e76616c696420696e74657266616365206964000000006000830152602082019050919050565b600062000523602083620005fb565b91507f4f776e61626c653a2063616c6c6572206973206e6f7420746865206f776e65726000830152602082019050919050565b60006200056482846200049b565b915081905092915050565b600060608201905062000586600083018662000479565b6200059560208301856200048a565b620005a4604083018462000479565b949350505050565b60006020820190508181036000830152620005c781620004d2565b9050919050565b60006020820190508181036000830152620005e98162000514565b9050919050565b600081519050919050565b600082825260208201905092915050565b600081905092915050565b6000620006248262000635565b9050919050565b6000819050919050565b600073ffffffffffffffffffffffffffffffffffffffff82169050919050565b60005b838110156200067557808201518184015260208101905062000658565b8381111562000685576000848401525b50505050565b620006968162000617565b8114620006a257600080fd5b50565b612c8180620006b56000396000f3fe608060405234801561001057600080fd5b506004361061010b5760003560e01c80635cfb8bfd116100a2578063d500958411610071578063d5009584146102fc578063df68b6331461031a578063ebac15f91461033b578063f2fde38b14610359578063fca85eb3146103755761010b565b80635cfb8bfd146102745780637084a4a9146102a4578063715018a6146102d45780638da5cb5b146102de5761010b565b80632d2dcc48116100de5780632d2dcc48146101c3578063449a09a4146101df5780634f5c2e6c1461020f5780635a1c2eb3146102445761010b565b806301ffc9a7146101105780631f1f86521461014057806323d2625314610175578063249cb3fa14610193575b600080fd5b61012a600480360381019061012591906123cc565b610393565b6040516101379190612903565b60405180910390f35b61015a60048036038101906101559190612187565b6103fb565b60405161016c96959493929190612825565b60405180910390f35b61017d610837565b60405161018a9190612a59565b60405180910390f35b6101ad60048036038101906101a8919061232d565b610844565b6040516101ba919061291e565b60405180910390f35b6101dd60048036038101906101d89190612187565b610873565b005b6101f960048036038101906101f491906122d5565b610915565b60405161020691906127b8565b60405180910390f35b610229600480360381019061022491906123f5565b6109fa565b60405161023b96959493929190612825565b60405180910390f35b61025e600480360381019061025991906121d9565b610cc3565b60405161026b9190612903565b60405180910390f35b61028e600480360381019061028991906121d9565b61110f565b60405161029b9190612903565b60405180910390f35b6102be60048036038101906102b99190612369565b6113cb565b6040516102cb9190612903565b60405180910390f35b6102dc6115db565b005b6102e6611730565b6040516102f391906127b8565b60405180910390f35b610304611759565b60405161031191906127b8565b60405180910390f35b61032261180b565b60405161033294939291906128a2565b60405180910390f35b610343611aef565b60405161035091906129be565b60405180910390f35b610373600480360381019061036e9190612187565b611b19565b005b61037d611cdd565b60405161038a9190612903565b60405180910390f35b600060016000837bffffffffffffffffffffffffffffffffffffffffffffffffffffffff19167bffffffffffffffffffffffffffffffffffffffffffffffffffffffff1916815260200190815260200160002060009054906101000a900460ff169050919050565b600080606080606080600360008873ffffffffffffffffffffffffffffffffffffffff1673ffffffffffffffffffffffffffffffffffffffff16815260200190815260200160002060000160009054906101000a900473ffffffffffffffffffffffffffffffffffffffff16600360008973ffffffffffffffffffffffffffffffffffffffff1673ffffffffffffffffffffffffffffffffffffffff16815260200190815260200160002060010154600360008a73ffffffffffffffffffffffffffffffffffffffff1673ffffffffffffffffffffffffffffffffffffffff168152602001908152602001600020600201600360008b73ffffffffffffffffffffffffffffffffffffffff1673ffffffffffffffffffffffffffffffffffffffff168152602001908152602001600020600301600360008c73ffffffffffffffffffffffffffffffffffffffff1673ffffffffffffffffffffffffffffffffffffffff168152602001908152602001600020600401600360008d73ffffffffffffffffffffffffffffffffffffffff1673ffffffffffffffffffffffffffffffffffffffff168152602001908152602001600020600501838054600181600116156101000203166002900480601f0160208091040260200160405190810160405280929190818152602001828054600181600116156101000203166002900480156106475780601f1061061c57610100808354040283529160200191610647565b820191906000526020600020905b81548152906001019060200180831161062a57829003601f168201915b50505050509350828054600181600116156101000203166002900480601f0160208091040260200160405190810160405280929190818152602001828054600181600116156101000203166002900480156106e35780601f106106b8576101008083540402835291602001916106e3565b820191906000526020600020905b8154815290600101906020018083116106c657829003601f168201915b50505050509250818054600181600116156101000203166002900480601f01602080910402602001604051908101604052809291908181526020018280546001816001161561010002031660029004801561077f5780601f106107545761010080835404028352916020019161077f565b820191906000526020600020905b81548152906001019060200180831161076257829003601f168201915b50505050509150808054600181600116156101000203166002900480601f01602080910402602001604051908101604052809291908181526020018280546001816001161561010002031660029004801561081b5780601f106107f05761010080835404028352916020019161081b565b820191906000526020600020905b8154815290600101906020018083116107fe57829003601f168201915b5050505050905095509550955095509550955091939550919395565b6000600680549050905090565b6000604051602001610855906127a3565b60405160208183030381529060405280519060200120905092915050565b61087b611da7565b73ffffffffffffffffffffffffffffffffffffffff166000809054906101000a900473ffffffffffffffffffffffffffffffffffffffff1673ffffffffffffffffffffffffffffffffffffffff1614610909576040517f08c379a000000000000000000000000000000000000000000000000000000000815260040161090090612a19565b60405180910390fd5b61091281611daf565b50565b600080838360405160200161092b92919061278a565b604051602081830303815290604052805190602001209050600260009054906101000a900473ffffffffffffffffffffffffffffffffffffffff1673ffffffffffffffffffffffffffffffffffffffff1663aabbb8ca86836040518363ffffffff1660e01b81526004016109a09291906127fc565b60206040518083038186803b1580156109b857600080fd5b505afa1580156109cc573d6000803e3d6000fd5b505050506040513d601f19601f820116820180604052508101906109f091906121b0565b9150509392505050565b60068181548110610a0757fe5b90600052602060002090600602016000915090508060000160009054906101000a900473ffffffffffffffffffffffffffffffffffffffff1690806001015490806002018054600181600116156101000203166002900480601f016020809104026020016040519081016040528092919081815260200182805460018160011615610100020316600290048015610adf5780601f10610ab457610100808354040283529160200191610adf565b820191906000526020600020905b815481529060010190602001808311610ac257829003601f168201915b505050505090806003018054600181600116156101000203166002900480601f016020809104026020016040519081016040528092919081815260200182805460018160011615610100020316600290048015610b7d5780601f10610b5257610100808354040283529160200191610b7d565b820191906000526020600020905b815481529060010190602001808311610b6057829003601f168201915b505050505090806004018054600181600116156101000203166002900480601f016020809104026020016040519081016040528092919081815260200182805460018160011615610100020316600290048015610c1b5780601f10610bf057610100808354040283529160200191610c1b565b820191906000526020600020905b815481529060010190602001808311610bfe57829003601f168201915b505050505090806005018054600181600116156101000203166002900480601f016020809104026020016040519081016040528092919081815260200182805460018160011615610100020316600290048015610cb95780601f10610c8e57610100808354040283529160200191610cb9565b820191906000526020600020905b815481529060010190602001808311610c9c57829003601f168201915b5050505050905086565b6000610ccd611da7565b73ffffffffffffffffffffffffffffffffffffffff166000809054906101000a900473ffffffffffffffffffffffffffffffffffffffff1673ffffffffffffffffffffffffffffffffffffffff1614610d5b576040517f08c379a0000000000000000000000000000000000000000000000000000000008152600401610d5290612a19565b60405180910390fd5b610d63611f16565b6040518060c001604052808d73ffffffffffffffffffffffffffffffffffffffff1681526020018c81526020018b8b8080601f016020809104026020016040519081016040528093929190818152602001838380828437600081840152601f19601f82011690508083019250505050505050815260200189898080601f016020809104026020016040519081016040528093929190818152602001838380828437600081840152601f19601f82011690508083019250505050505050815260200187878080601f016020809104026020016040519081016040528093929190818152602001838380828437600081840152601f19601f82011690508083019250505050505050815260200185858080601f016020809104026020016040519081016040528093929190818152602001838380828437600081840152601f19601f82011690508083019250505050505050815250905080600360008e73ffffffffffffffffffffffffffffffffffffffff1673ffffffffffffffffffffffffffffffffffffffff16815260200190815260200160002060008201518160000160006101000a81548173ffffffffffffffffffffffffffffffffffffffff021916908373ffffffffffffffffffffffffffffffffffffffff160217905550602082015181600101556040820151816002019080519060200190610f65929190611f65565b506060820151816003019080519060200190610f82929190611f65565b506080820151816004019080519060200190610f9f929190611f65565b5060a0820151816005019080519060200190610fbc929190611f65565b50905050600681908060018154018082558091505060019003906000526020600020906006020160009091909190915060008201518160000160006101000a81548173ffffffffffffffffffffffffffffffffffffffff021916908373ffffffffffffffffffffffffffffffffffffffff160217905550602082015181600101556040820151816002019080519060200190611059929190611f65565b506060820151816003019080519060200190611076929190611f65565b506080820151816004019080519060200190611093929190611f65565b5060a08201518160050190805190602001906110b0929190611f65565b5050507f808b44a88c627226ac8203dfbf828e31a3acdd62bdf56099fd331749759b91928b8d8c8c8c8c8c8c8c8c6040516110f49a99989796959493929190612939565b60405180910390a160019150509a9950505050505050505050565b6000600360008c73ffffffffffffffffffffffffffffffffffffffff1673ffffffffffffffffffffffffffffffffffffffff16815260200190815260200160002060000160009054906101000a900473ffffffffffffffffffffffffffffffffffffffff1673ffffffffffffffffffffffffffffffffffffffff163373ffffffffffffffffffffffffffffffffffffffff16146111e1576040517f08c379a00000000000000000000000000000000000000000000000000000000081526004016111d890612a39565b60405180910390fd5b89600360008d73ffffffffffffffffffffffffffffffffffffffff1673ffffffffffffffffffffffffffffffffffffffff168152602001908152602001600020600101819055508888600360008e73ffffffffffffffffffffffffffffffffffffffff1673ffffffffffffffffffffffffffffffffffffffff1681526020019081526020016000206002019190611279929190611fe5565b508686600360008e73ffffffffffffffffffffffffffffffffffffffff1673ffffffffffffffffffffffffffffffffffffffff16815260200190815260200160002060030191906112cb929190611fe5565b508484600360008e73ffffffffffffffffffffffffffffffffffffffff1673ffffffffffffffffffffffffffffffffffffffff168152602001908152602001600020600401919061131d929190611fe5565b508282600360008e73ffffffffffffffffffffffffffffffffffffffff1673ffffffffffffffffffffffffffffffffffffffff168152602001908152602001600020600501919061136f929190611fe5565b507fa569f11aae58834e80f7376cacbfdf0289d434ceeb80ebc0221a66ee208f6cc28a8c8b8b8b8b8b8b8b8b6040516113b19a99989796959493929190612939565b60405180910390a1600190509a9950505050505050505050565b60006113d5611da7565b73ffffffffffffffffffffffffffffffffffffffff166000809054906101000a900473ffffffffffffffffffffffffffffffffffffffff1673ffffffffffffffffffffffffffffffffffffffff1614611463576040517f08c379a000000000000000000000000000000000000000000000000000000000815260040161145a90612a19565b60405180910390fd5b60405180608001604052808681526020018573ffffffffffffffffffffffffffffffffffffffff1681526020018473ffffffffffffffffffffffffffffffffffffffff1681526020018373ffffffffffffffffffffffffffffffffffffffff168152506004600060055481526020019081526020016000206000820151816000015560208201518160010160006101000a81548173ffffffffffffffffffffffffffffffffffffffff021916908373ffffffffffffffffffffffffffffffffffffffff16021790555060408201518160020160006101000a81548173ffffffffffffffffffffffffffffffffffffffff021916908373ffffffffffffffffffffffffffffffffffffffff16021790555060608201518160030160006101000a81548173ffffffffffffffffffffffffffffffffffffffff021916908373ffffffffffffffffffffffffffffffffffffffff16021790555090505060056000815480929190600101919050555060019050949350505050565b6115e3611da7565b73ffffffffffffffffffffffffffffffffffffffff166000809054906101000a900473ffffffffffffffffffffffffffffffffffffffff1673ffffffffffffffffffffffffffffffffffffffff1614611671576040517f08c379a000000000000000000000000000000000000000000000000000000000815260040161166890612a19565b60405180910390fd5b600073ffffffffffffffffffffffffffffffffffffffff166000809054906101000a900473ffffffffffffffffffffffffffffffffffffffff1673ffffffffffffffffffffffffffffffffffffffff167f8be0079c531659141344cd1fd0a4f28419497f9722a3daafe3b4186f6b6457e060405160405180910390a360008060006101000a81548173ffffffffffffffffffffffffffffffffffffffff021916908373ffffffffffffffffffffffffffffffffffffffff160217905550565b60008060009054906101000a900473ffffffffffffffffffffffffffffffffffffffff16905090565b6000600260009054906101000a900473ffffffffffffffffffffffffffffffffffffffff1673ffffffffffffffffffffffffffffffffffffffff16633d584063306040518263ffffffff1660e01b81526004016117b691906127b8565b60206040518083038186803b1580156117ce57600080fd5b505afa1580156117e2573d6000803e3d6000fd5b505050506040513d601f19601f8201168201806040525081019061180691906121b0565b905090565b606080606080606060055467ffffffffffffffff8111801561182c57600080fd5b5060405190808252806020026020018201604052801561185b5781602001602082028036833780820191505090505b509050606060055467ffffffffffffffff8111801561187957600080fd5b506040519080825280602002602001820160405280156118a85781602001602082028036833780820191505090505b509050606060055467ffffffffffffffff811180156118c657600080fd5b506040519080825280602002602001820160405280156118f55781602001602082028036833780820191505090505b509050606060055467ffffffffffffffff8111801561191357600080fd5b506040519080825280602002602001820160405280156119425781602001602082028036833780820191505090505b50905060008090505b600554811015611ad8576000600460008381526020019081526020016000209050806000015486838151811061197d57fe5b6020026020010181815250508060010160009054906101000a900473ffffffffffffffffffffffffffffffffffffffff168583815181106119ba57fe5b602002602001019073ffffffffffffffffffffffffffffffffffffffff16908173ffffffffffffffffffffffffffffffffffffffff16815250508060020160009054906101000a900473ffffffffffffffffffffffffffffffffffffffff16848381518110611a2557fe5b602002602001019073ffffffffffffffffffffffffffffffffffffffff16908173ffffffffffffffffffffffffffffffffffffffff16815250508060030160009054906101000a900473ffffffffffffffffffffffffffffffffffffffff16838381518110611a9057fe5b602002602001019073ffffffffffffffffffffffffffffffffffffffff16908173ffffffffffffffffffffffffffffffffffffffff168152505050808060010191505061194b565b508383838397509750975097505050505090919293565b600063df68b63360e01b6323d2625360e01b637084a4a960e01b635a1c2eb360e01b181818905090565b611b21611da7565b73ffffffffffffffffffffffffffffffffffffffff166000809054906101000a900473ffffffffffffffffffffffffffffffffffffffff1673ffffffffffffffffffffffffffffffffffffffff1614611baf576040517f08c379a0000000000000000000000000000000000000000000000000000000008152600401611ba690612a19565b60405180910390fd5b600073ffffffffffffffffffffffffffffffffffffffff168173ffffffffffffffffffffffffffffffffffffffff161415611c1f576040517f08c379a0000000000000000000000000000000000000000000000000000000008152600401611c16906129d9565b60405180910390fd5b8073ffffffffffffffffffffffffffffffffffffffff166000809054906101000a900473ffffffffffffffffffffffffffffffffffffffff1673ffffffffffffffffffffffffffffffffffffffff167f8be0079c531659141344cd1fd0a4f28419497f9722a3daafe3b4186f6b6457e060405160405180910390a3806000806101000a81548173ffffffffffffffffffffffffffffffffffffffff021916908373ffffffffffffffffffffffffffffffffffffffff16021790555050565b6000611ce7611da7565b73ffffffffffffffffffffffffffffffffffffffff166000809054906101000a900473ffffffffffffffffffffffffffffffffffffffff1673ffffffffffffffffffffffffffffffffffffffff1614611d75576040517f08c379a0000000000000000000000000000000000000000000000000000000008152600401611d6c90612a19565b60405180910390fd5b611da063df68b63360e01b6323d2625360e01b637084a4a960e01b635a1c2eb360e01b181818611e41565b6001905090565b600033905090565b600260009054906101000a900473ffffffffffffffffffffffffffffffffffffffff1673ffffffffffffffffffffffffffffffffffffffff16635df8122f30836040518363ffffffff1660e01b8152600401611e0c9291906127d3565b600060405180830381600087803b158015611e2657600080fd5b505af1158015611e3a573d6000803e3d6000fd5b5050505050565b63ffffffff60e01b817bffffffffffffffffffffffffffffffffffffffffffffffffffffffff19161415611eaa576040517f08c379a0000000000000000000000000000000000000000000000000000000008152600401611ea1906129f9565b60405180910390fd5b6001806000837bffffffffffffffffffffffffffffffffffffffffffffffffffffffff19167bffffffffffffffffffffffffffffffffffffffffffffffffffffffff1916815260200190815260200160002060006101000a81548160ff02191690831515021790555050565b6040518060c00160405280600073ffffffffffffffffffffffffffffffffffffffff16815260200160008019168152602001606081526020016060815260200160608152602001606081525090565b828054600181600116156101000203166002900490600052602060002090601f016020900481019282601f10611fa657805160ff1916838001178555611fd4565b82800160010185558215611fd4579182015b82811115611fd3578251825591602001919060010190611fb8565b5b509050611fe19190612065565b5090565b828054600181600116156101000203166002900490600052602060002090601f016020900481019282601f1061202657803560ff1916838001178555612054565b82800160010185558215612054579182015b82811115612053578235825591602001919060010190612038565b5b5090506120619190612065565b5090565b61208791905b8082111561208357600081600090555060010161206b565b5090565b90565b60008135905061209981612bef565b92915050565b6000815190506120ae81612bef565b92915050565b6000813590506120c381612c06565b92915050565b6000813590506120d881612c1d565b92915050565b60008083601f8401126120f057600080fd5b8235905067ffffffffffffffff81111561210957600080fd5b60208301915083600182028301111561212157600080fd5b9250929050565b60008083601f84011261213a57600080fd5b8235905067ffffffffffffffff81111561215357600080fd5b60208301915083600182028301111561216b57600080fd5b9250929050565b60008135905061218181612c34565b92915050565b60006020828403121561219957600080fd5b60006121a78482850161208a565b91505092915050565b6000602082840312156121c257600080fd5b60006121d08482850161209f565b91505092915050565b60008060008060008060008060008060c08b8d0312156121f857600080fd5b60006122068d828e0161208a565b9a505060206122178d828e016120b4565b99505060408b013567ffffffffffffffff81111561223457600080fd5b6122408d828e016120de565b985098505060608b013567ffffffffffffffff81111561225f57600080fd5b61226b8d828e016120de565b965096505060808b013567ffffffffffffffff81111561228a57600080fd5b6122968d828e016120de565b945094505060a08b013567ffffffffffffffff8111156122b557600080fd5b6122c18d828e016120de565b92509250509295989b9194979a5092959850565b6000806000604084860312156122ea57600080fd5b60006122f88682870161208a565b935050602084013567ffffffffffffffff81111561231557600080fd5b61232186828701612128565b92509250509250925092565b6000806040838503121561234057600080fd5b600061234e858286016120b4565b925050602061235f8582860161208a565b9150509250929050565b6000806000806080858703121561237f57600080fd5b600061238d878288016120b4565b945050602061239e8782880161208a565b93505060406123af8782880161208a565b92505060606123c08782880161208a565b91505092959194509250565b6000602082840312156123de57600080fd5b60006123ec848285016120c9565b91505092915050565b60006020828403121561240757600080fd5b600061241584828501612172565b91505092915050565b600061242a838361244e565b60208301905092915050565b60006124428383612537565b60208301905092915050565b61245781612b1e565b82525050565b61246681612b1e565b82525050565b600061247782612a94565b6124818185612acf565b935061248c83612a74565b8060005b838110156124bd5781516124a4888261241e565b97506124af83612ab5565b925050600181019050612490565b5085935050505092915050565b60006124d582612a9f565b6124df8185612ae0565b93506124ea83612a84565b8060005b8381101561251b5781516125028882612436565b975061250d83612ac2565b9250506001810190506124ee565b5085935050505092915050565b61253181612b30565b82525050565b61254081612b3c565b82525050565b61254f81612b3c565b82525050565b61255e81612b46565b82525050565b60006125708385612af1565b935061257d838584612b9c565b61258683612bde565b840190509392505050565b600061259c82612aaa565b6125a68185612af1565b93506125b6818560208601612bab565b6125bf81612bde565b840191505092915050565b60006125d68385612b13565b93506125e3838584612b9c565b82840190509392505050565b60006125fc602683612b02565b91507f4f776e61626c653a206e6577206f776e657220697320746865207a65726f206160008301527f64647265737300000000000000000000000000000000000000000000000000006020830152604082019050919050565b6000612662601c83612b02565b91507f4552433136353a20696e76616c696420696e74657266616365206964000000006000830152602082019050919050565b60006126a2602083612b02565b91507f4f776e61626c653a2063616c6c6572206973206e6f7420746865206f776e65726000830152602082019050919050565b60006126e2601483612b13565b91507f455243313832305f4143434550545f4d414749430000000000000000000000006000830152601482019050919050565b6000612722602b83612b02565b91507f4d75737420757064617465204f72672066726f6d20726567697374657265642060008301527f6f726720616464726573730000000000000000000000000000000000000000006020830152604082019050919050565b61278481612b92565b82525050565b60006127978284866125ca565b91508190509392505050565b60006127ae826126d5565b9150819050919050565b60006020820190506127cd600083018461245d565b92915050565b60006040820190506127e8600083018561245d565b6127f5602083018461245d565b9392505050565b6000604082019050612811600083018561245d565b61281e6020830184612546565b9392505050565b600060c08201905061283a600083018961245d565b6128476020830188612546565b81810360408301526128598187612591565b9050818103606083015261286d8186612591565b905081810360808301526128818185612591565b905081810360a08301526128958184612591565b9050979650505050505050565b600060808201905081810360008301526128bc81876124ca565b905081810360208301526128d0818661246c565b905081810360408301526128e4818561246c565b905081810360608301526128f8818461246c565b905095945050505050565b60006020820190506129186000830184612528565b92915050565b60006020820190506129336000830184612546565b92915050565b600060c08201905061294e600083018d612546565b61295b602083018c61245d565b818103604083015261296e818a8c612564565b9050818103606083015261298381888a612564565b90508181036080830152612998818688612564565b905081810360a08301526129ad818486612564565b90509b9a5050505050505050505050565b60006020820190506129d36000830184612555565b92915050565b600060208201905081810360008301526129f2816125ef565b9050919050565b60006020820190508181036000830152612a1281612655565b9050919050565b60006020820190508181036000830152612a3281612695565b9050919050565b60006020820190508181036000830152612a5281612715565b9050919050565b6000602082019050612a6e600083018461277b565b92915050565b6000819050602082019050919050565b6000819050602082019050919050565b600081519050919050565b600081519050919050565b600081519050919050565b6000602082019050919050565b6000602082019050919050565b600082825260208201905092915050565b600082825260208201905092915050565b600082825260208201905092915050565b600082825260208201905092915050565b600081905092915050565b6000612b2982612b72565b9050919050565b60008115159050919050565b6000819050919050565b60007fffffffff0000000000000000000000000000000000000000000000000000000082169050919050565b600073ffffffffffffffffffffffffffffffffffffffff82169050919050565b6000819050919050565b82818337600083830152505050565b60005b83811015612bc9578082015181840152602081019050612bae565b83811115612bd8576000848401525b50505050565b6000601f19601f8301169050919050565b612bf881612b1e565b8114612c0357600080fd5b50565b612c0f81612b3c565b8114612c1a57600080fd5b50565b612c2681612b46565b8114612c3157600080fd5b50565b612c3d81612b92565b8114612c4857600080fd5b5056fea2646970667358221220bb8ab1d023206f3a00878f95e1d52d562b3e5ca6022c957d98f80dfb2f807a4a64736f6c63430006090033",
  "immutableReferences": {},
  "source": "// SPDX-License-Identifier: CC0\npragma solidity ^0.6.9;\npragma experimental ABIEncoderV2;\n\nimport \"./IOrgRegistry.sol\";\nimport \"./Registrar.sol\";\nimport \"./lib/ERC165Compatible.sol\";\nimport \"@openzeppelin/contracts/access/Ownable.sol\";\n\n/// @dev Contract for maintaining organization registry\n/// Contract inherits from Ownable and ERC165Compatible\n/// Ownable contains ownership criteria of the organization registry\n/// ERC165Compatible contains interface compatibility checks\ncontract OrgRegistry is Ownable, ERC165Compatible, Registrar, IOrgRegistry {\n    struct Org {\n        address orgAddress;\n        bytes32 name;\n        bytes messagingEndpoint;\n        bytes whisperKey;\n        bytes zkpPublicKey;\n        bytes metadata;\n    }\n\n    struct OrgInterfaces {\n        bytes32 groupName;\n        address tokenAddress;\n        address shieldAddress;\n        address verifierAddress;\n    }\n\n    mapping(address => Org) orgMap;\n    mapping(uint256 => OrgInterfaces) orgInterfaceMap;\n    uint256 orgInterfaceCount;\n\n    Org[] public orgs;\n    mapping(address => address) managerMap;\n\n    event RegisterOrg(\n        bytes32 _name,\n        address _address,\n        bytes _messagingEndpoint,\n        bytes _whisperKey,\n        bytes _zkpPublicKey,\n        bytes _metadata\n    );\n\n    event UpdateOrg(\n        bytes32 _name,\n        address _address,\n        bytes _messagingEndpoint,\n        bytes _whisperKey,\n        bytes _zkpPublicKey,\n        bytes _metadata\n    );\n\n    /// @dev constructor function that takes the address of a pre-deployed ERC1820\n    /// registry. Ideally, this contract is a publicly known address:\n    /// 0x1820a4B7618BdE71Dce8cdc73aAB6C95905faD24. Inherently, the constructor\n    /// sets the interfaces and registers the current contract with the global registry\n    constructor(address _erc1820) public ERC165Compatible() Registrar(_erc1820) {\n        setInterfaces();\n        setInterfaceImplementation(\"IOrgRegistry\", address(this));\n    }\n\n    /// @notice This is an implementation of setting interfaces for the organization\n    /// registry contract\n    /// @dev the character '^' corresponds to bit wise xor of individual interface id's\n    /// which are the parsed 4 bytes of the function signature of each of the functions\n    /// in the org registry contract\n    function setInterfaces() public override onlyOwner returns (bool) {\n        /// 0x54ebc817 is equivalent to the bytes4 of the function selectors in IOrgRegistry\n        _registerInterface(\n            this.registerOrg.selector ^\n                this.registerInterfaces.selector ^\n                this.getOrgCount.selector ^\n                this.getInterfaceAddresses.selector\n        );\n        return true;\n    }\n\n    /// @notice This function is a helper function to be able to get the\n    /// set interface id by the setInterfaces()\n    function getInterfaces() external pure returns (bytes4) {\n        return\n            this.registerOrg.selector ^\n            this.registerInterfaces.selector ^\n            this.getOrgCount.selector ^\n            this.getInterfaceAddresses.selector;\n    }\n\n    /// @notice Indicates whether the contract implements the interface 'interfaceHash' for the address 'addr' or not.\n    /// @dev Below implementation is necessary to be able to have the ability to register with ERC1820\n    /// @param interfaceHash keccak256 hash of the name of the interface\n    /// @param addr Address for which the contract will implement the interface\n    /// @return ERC1820_ACCEPT_MAGIC only if the contract implements 'interfaceHash' for the address 'addr'.\n    function canImplementInterfaceForAddress(bytes32 interfaceHash, address addr) external view returns (bytes32) {\n        return ERC1820_ACCEPT_MAGIC;\n    }\n\n    /// @dev Since this is an inherited method from Registrar, it allows for a new manager to be set\n    /// for this contract instance\n    function assignManager(address _newManager) external onlyOwner {\n        assignManagement(_newManager);\n    }\n\n    /// @notice Function to register an organization\n    /// @param _address ethereum address of the registered organization\n    /// @param _name name of the registered organization\n    /// @param _messagingEndpoint public messaging endpoint\n    /// @param _whisperKey public key required for message communication\n    /// @param _zkpPublicKey public key required for commitments & to verify EdDSA signatures with\n    /// @dev Function to register an organization\n    /// @return `true` upon successful registration of the organization\n    function registerOrg(\n        address _address,\n        bytes32 _name,\n        bytes calldata _messagingEndpoint,\n        bytes calldata _whisperKey,\n        bytes calldata _zkpPublicKey,\n        bytes calldata _metadata\n    ) external override onlyOwner returns (bool) {\n        Org memory org = Org(_address, _name, _messagingEndpoint, _whisperKey, _zkpPublicKey, _metadata);\n        orgMap[_address] = org;\n        orgs.push(org);\n\n        emit RegisterOrg(_name, _address, _messagingEndpoint, _whisperKey, _zkpPublicKey, _metadata);\n\n        return true;\n    }\n\n    /// @notice Function to update an organization\n    /// @param _address require the ethereum address of the registered organization to update the org\n    /// @param _name name of the registered organization\n    /// @param _messagingEndpoint public messaging endpoint\n    /// @param _whisperKey public key required for message communication\n    /// @param _zkpPublicKey public key required for commitments & to verify EdDSA signatures with\n    /// @dev Function to update an organization\n    /// @return `true` upon successful registration of the organization\n    function updateOrg(\n        address _address,\n        bytes32 _name,\n        bytes calldata _messagingEndpoint,\n        bytes calldata _whisperKey,\n        bytes calldata _zkpPublicKey,\n        bytes calldata _metadata\n    ) external override returns (bool) {\n        require(msg.sender == orgMap[_address].orgAddress, \"Must update Org from registered org address\");\n        orgMap[_address].name = _name;\n        orgMap[_address].messagingEndpoint = _messagingEndpoint;\n        orgMap[_address].whisperKey = _whisperKey;\n        orgMap[_address].zkpPublicKey = _zkpPublicKey;\n        orgMap[_address].metadata = _metadata;\n\n        emit UpdateOrg(_name, _address, _messagingEndpoint, _whisperKey, _zkpPublicKey, _metadata);\n        return true;\n    }\n\n    /// @notice Function to register the names of the interfaces associated with the OrgRegistry\n    /// @param _groupName name of the working group registered by an organization\n    /// @param _tokenAddress name of the registered token interface\n    /// @param _shieldAddress name of the registered shield registry interface\n    /// @param _verifierAddress name of the verifier registry interface\n    /// @dev Function to register an organization's interfaces for easy lookup\n    /// @return `true` upon successful registration of the organization's interfaces\n    function registerInterfaces(\n        bytes32 _groupName,\n        address _tokenAddress,\n        address _shieldAddress,\n        address _verifierAddress\n    ) external onlyOwner returns (bool) {\n        orgInterfaceMap[orgInterfaceCount] = OrgInterfaces(_groupName, _tokenAddress, _shieldAddress, _verifierAddress);\n\n        orgInterfaceCount++;\n        return true;\n    }\n\n    /// @dev Function to get the count of number of organizations to help with extraction\n    /// @return length of the array containing organization addresses\n    function getOrgCount() external view override returns (uint256) {\n        return orgs.length;\n    }\n\n    /// @notice Function to get a single organization's details\n    function getOrg(address _address)\n        external\n        view\n        override\n        returns (\n            address,\n            bytes32,\n            bytes memory,\n            bytes memory,\n            bytes memory,\n            bytes memory\n        )\n    {\n        return (\n            orgMap[_address].orgAddress,\n            orgMap[_address].name,\n            orgMap[_address].messagingEndpoint,\n            orgMap[_address].whisperKey,\n            orgMap[_address].zkpPublicKey,\n            orgMap[_address].metadata\n        );\n    }\n\n    /// @notice Function to get organization's interface details\n    function getInterfaceAddresses()\n        external\n        view\n        returns (\n            bytes32[] memory,\n            address[] memory,\n            address[] memory,\n            address[] memory\n        )\n    {\n        bytes32[] memory gName = new bytes32[](orgInterfaceCount);\n        address[] memory tfAddress = new address[](orgInterfaceCount);\n        address[] memory sAddress = new address[](orgInterfaceCount);\n        address[] memory vrAddress = new address[](orgInterfaceCount);\n\n        for (uint256 i = 0; i < orgInterfaceCount; i++) {\n            OrgInterfaces storage orgInterfaces = orgInterfaceMap[i];\n            gName[i] = orgInterfaces.groupName;\n            tfAddress[i] = orgInterfaces.tokenAddress;\n            sAddress[i] = orgInterfaces.shieldAddress;\n            vrAddress[i] = orgInterfaces.verifierAddress;\n        }\n        return (gName, tfAddress, sAddress, vrAddress);\n    }\n}\n",
  "sourcePath": "/Users/sbacha/baseline-workspace/contracts/node_modules/@baseline-protocol/contracts/contracts/registry/OrgRegistry.sol",
  "compiler": {
    "name": "solc",
    "version": "0.6.9+commit.3e3065ac.Emscripten.clang"
  },
  "schemaVersion": "3.2.2",
  "updatedAt": "2020-11-09T11:17:31.097Z",
  "devdoc": {
    "details": "Contract for maintaining organization registry Contract inherits from Ownable and ERC165Compatible Ownable contains ownership criteria of the organization registry ERC165Compatible contains interface compatibility checks",
    "methods": {
      "assignManager(address)": {
        "details": "Since this is an inherited method from Registrar, it allows for a new manager to be set for this contract instance"
      },
      "canImplementInterfaceForAddress(bytes32,address)": {
        "details": "Below implementation is necessary to be able to have the ability to register with ERC1820",
        "params": {
          "addr": "Address for which the contract will implement the interface",
          "interfaceHash": "keccak256 hash of the name of the interface"
        },
        "returns": {
          "_0": "ERC1820_ACCEPT_MAGIC only if the contract implements 'interfaceHash' for the address 'addr'."
        }
      },
      "constructor": {
        "details": "constructor function that takes the address of a pre-deployed ERC1820 registry. Ideally, this contract is a publicly known address: 0x1820a4B7618BdE71Dce8cdc73aAB6C95905faD24. Inherently, the constructor sets the interfaces and registers the current contract with the global registry"
      },
      "getManager()": {
        "details": "This allows you to get this contract manager address"
      },
      "getOrgCount()": {
        "details": "Function to get the count of number of organizations to help with extraction",
        "returns": {
          "_0": "length of the array containing organization addresses"
        }
      },
      "interfaceAddr(address,string)": {
        "details": "This enables getting the address of the implementer",
        "params": {
          "_interfaceLabel": "label for the interface or the contract that is registered",
          "addr": "the address for which the implementer is deployed"
        }
      },
      "owner()": {
        "details": "Returns the address of the current owner."
      },
      "registerInterfaces(bytes32,address,address,address)": {
        "details": "Function to register an organization's interfaces for easy lookup",
        "params": {
          "_groupName": "name of the working group registered by an organization",
          "_shieldAddress": "name of the registered shield registry interface",
          "_tokenAddress": "name of the registered token interface",
          "_verifierAddress": "name of the verifier registry interface"
        },
        "returns": {
          "_0": "`true` upon successful registration of the organization's interfaces"
        }
      },
      "registerOrg(address,bytes32,bytes,bytes,bytes,bytes)": {
        "details": "Function to register an organization",
        "params": {
          "_address": "ethereum address of the registered organization",
          "_messagingEndpoint": "public messaging endpoint",
          "_name": "name of the registered organization",
          "_whisperKey": "public key required for message communication",
          "_zkpPublicKey": "public key required for commitments & to verify EdDSA signatures with"
        },
        "returns": {
          "_0": "`true` upon successful registration of the organization"
        }
      },
      "renounceOwnership()": {
        "details": "Leaves the contract without owner. It will not be possible to call `onlyOwner` functions anymore. Can only be called by the current owner. NOTE: Renouncing ownership will leave the contract without an owner, thereby removing any functionality that is only available to the owner."
      },
      "setInterfaces()": {
        "details": "the character '^' corresponds to bit wise xor of individual interface id's which are the parsed 4 bytes of the function signature of each of the functions in the org registry contract"
      },
      "supportsInterface(bytes4)": {
        "details": "See {IERC165-supportsInterface}. Time complexity O(1), guaranteed to always use less than 30 000 gas."
      },
      "transferOwnership(address)": {
        "details": "Transfers ownership of the contract to a new account (`newOwner`). Can only be called by the current owner."
      },
      "updateOrg(address,bytes32,bytes,bytes,bytes,bytes)": {
        "details": "Function to update an organization",
        "params": {
          "_address": "require the ethereum address of the registered organization to update the org",
          "_messagingEndpoint": "public messaging endpoint",
          "_name": "name of the registered organization",
          "_whisperKey": "public key required for message communication",
          "_zkpPublicKey": "public key required for commitments & to verify EdDSA signatures with"
        },
        "returns": {
          "_0": "`true` upon successful registration of the organization"
        }
      }
    }
  },
  "userdoc": {
    "methods": {
      "canImplementInterfaceForAddress(bytes32,address)": {
        "notice": "Indicates whether the contract implements the interface 'interfaceHash' for the address 'addr' or not."
      },
      "getInterfaceAddresses()": {
        "notice": "Function to get organization's interface details"
      },
      "getInterfaces()": {
        "notice": "This function is a helper function to be able to get the set interface id by the setInterfaces()"
      },
      "getOrg(address)": {
        "notice": "Function to get a single organization's details"
      },
      "registerInterfaces(bytes32,address,address,address)": {
        "notice": "Function to register the names of the interfaces associated with the OrgRegistry"
      },
      "registerOrg(address,bytes32,bytes,bytes,bytes,bytes)": {
        "notice": "Function to register an organization"
      },
      "setInterfaces()": {
        "notice": "This is an implementation of setting interfaces for the organization registry contract"
      },
      "updateOrg(address,bytes32,bytes,bytes,bytes,bytes)": {
        "notice": "Function to update an organization"
      }
    }
  }
}