{
  "contractName": "Registrar",
  "abi": [
    {
      "inputs": [
        {
          "internalType": "address",
          "name": "ERC1820RegistryAddress",
          "type": "address"
        }
      ],
      "stateMutability": "nonpayable",
      "type": "constructor"
    },
    {
      "inputs": [
        {
          "internalType": "address",
          "name": "addr",
          "type": "address"
        },
        {
          "internalType": "string",
          "name": "_interfaceLabel",
          "type": "string"
        }
      ],
      "name": "interfaceAddr",
      "outputs": [
        {
          "internalType": "address",
          "name": "",
          "type": "address"
        }
      ],
      "stateMutability": "view",
      "type": "function"
    },
    {
      "inputs": [],
      "name": "getManager",
      "outputs": [
        {
          "internalType": "address",
          "name": "",
          "type": "address"
        }
      ],
      "stateMutability": "view",
      "type": "function"
    }
  ],
  "bytecode": "0x608060405234801561001057600080fd5b506040516104283803806104288339818101604052602081101561003357600080fd5b8101908080519060200190929190505050806000806101000a81548173ffffffffffffffffffffffffffffffffffffffff021916908373ffffffffffffffffffffffffffffffffffffffff16021790555050610394806100946000396000f3fe608060405234801561001057600080fd5b50600436106100365760003560e01c8063449a09a41461003b578063d500958414610114575b600080fd5b6100d26004803603604081101561005157600080fd5b81019080803573ffffffffffffffffffffffffffffffffffffffff1690602001909291908035906020019064010000000081111561008e57600080fd5b8201836020820111156100a057600080fd5b803590602001918460018302840111640100000000831117156100c257600080fd5b909192939192939050505061015e565b604051808273ffffffffffffffffffffffffffffffffffffffff1673ffffffffffffffffffffffffffffffffffffffff16815260200191505060405180910390f35b61011c61027e565b604051808273ffffffffffffffffffffffffffffffffffffffff1673ffffffffffffffffffffffffffffffffffffffff16815260200191505060405180910390f35b60008083836040516020018083838082843780830192505050925050506040516020818303038152906040528051906020012090506000809054906101000a900473ffffffffffffffffffffffffffffffffffffffff1673ffffffffffffffffffffffffffffffffffffffff1663aabbb8ca86836040518363ffffffff1660e01b8152600401808373ffffffffffffffffffffffffffffffffffffffff1673ffffffffffffffffffffffffffffffffffffffff1681526020018281526020019250505060206040518083038186803b15801561023957600080fd5b505afa15801561024d573d6000803e3d6000fd5b505050506040513d602081101561026357600080fd5b81019080805190602001909291905050509150509392505050565b60008060009054906101000a900473ffffffffffffffffffffffffffffffffffffffff1673ffffffffffffffffffffffffffffffffffffffff16633d584063306040518263ffffffff1660e01b8152600401808273ffffffffffffffffffffffffffffffffffffffff1673ffffffffffffffffffffffffffffffffffffffff16815260200191505060206040518083038186803b15801561031e57600080fd5b505afa158015610332573d6000803e3d6000fd5b505050506040513d602081101561034857600080fd5b810190808051906020019092919050505090509056fea26469706673582212202b926a559ea4584f8aa4634272085acd87acfcf56cd5ee42e938915938b111e464736f6c63430006090033",
  "immutableReferences": {},
  "source": "// SPDX-License-Identifier: CC0\npragma solidity ^0.6.9;\n\nimport \"./lib/ERC1820Registry.sol\";\n\n/// @dev Contract that acts as a client for interacting with the ERC1820Registry\ncontract Registrar {\n\n    ERC1820Registry ERC1820REGISTRY;\n\n    bytes32 constant internal ERC1820_ACCEPT_MAGIC = keccak256(abi.encodePacked(\"ERC1820_ACCEPT_MAGIC\"));\n\n    /**\n    * @dev Throws if called by any account other than the owner.\n    */\n    modifier onlyManager() {\n        require(msg.sender == getManager(), \"You are not authorised to invoke this function\");\n        _;\n    }\n\n    \n    /// @notice Constructor that takes an argument of the ERC1820RegistryAddress\n    /// @dev Upon actual deployment of a static registry contract, this argument can be removed\n    /// @param ERC1820RegistryAddress pre-deployed ERC1820 registry address\n    constructor (address ERC1820RegistryAddress) public {\n        // Below line is to be uncommented during actual deployment since mainnet has a version of this address\n        // ERC1820Registry constant ERC1820REGISTRY = ERC1820Registry(0x1820a4B7618BdE71Dce8cdc73aAB6C95905faD24);\n        ERC1820REGISTRY = ERC1820Registry(ERC1820RegistryAddress);\n    }\n\n    /// @dev This enables setting the interface implementation\n    /// @notice Since this is an internal method any contract inheriting this contract would be\n    /// leveraged as the sender for the interface registry\n    /// @param _interfaceLabel label for the interface or the contract that is to be registered\n    /// @param _implementation the implementing contract's address\n    function setInterfaceImplementation(string memory _interfaceLabel, address _implementation) internal {\n        bytes32 interfaceHash = keccak256(abi.encodePacked(_interfaceLabel));\n        ERC1820REGISTRY.setInterfaceImplementer(address(this), interfaceHash, _implementation);\n    }\n\n    /// @dev This enables getting the address of the implementer\n    /// @param addr the address for which the implementer is deployed\n    /// @param _interfaceLabel label for the interface or the contract that is registered\n    function interfaceAddr(address addr, string calldata _interfaceLabel) external view returns(address) {\n        bytes32 interfaceHash = keccak256(abi.encodePacked(_interfaceLabel));\n        return ERC1820REGISTRY.getInterfaceImplementer(addr, interfaceHash);\n    }\n\n    /// @dev This enables assigning or changing manager\n    /// @notice Since this is an internal method any contract inheriting this contract would be\n    /// leveraged to call this function directly\n    /// @param _newManager address of the new manager who could set new interface implementations\n    function assignManagement(address _newManager) internal {\n        ERC1820REGISTRY.setManager(address(this), _newManager);\n    }\n\n    /// @dev This allows you to get this contract manager address\n    function getManager() public view returns(address) {\n        return ERC1820REGISTRY.getManager(address(this));\n    }\n}\n",
  "sourcePath": "/Users/sbacha/baseline-workspace/contracts/node_modules/@baseline-protocol/contracts/contracts/registry/Registrar.sol",
  "compiler": {
    "name": "solc",
    "version": "0.6.9+commit.3e3065ac.Emscripten.clang"
  },
  "schemaVersion": "3.3.2",
  "updatedAt": "2020-11-09T05:44:19.421Z",
  "devdoc": {
    "details": "Contract that acts as a client for interacting with the ERC1820Registry",
    "methods": {
      "constructor": {
        "details": "Upon actual deployment of a static registry contract, this argument can be removed",
        "params": {
          "ERC1820RegistryAddress": "pre-deployed ERC1820 registry address"
        }
      },
      "getManager()": {
        "details": "This allows you to get this contract manager address"
      },
      "interfaceAddr(address,string)": {
        "details": "This enables getting the address of the implementer",
        "params": {
          "_interfaceLabel": "label for the interface or the contract that is registered",
          "addr": "the address for which the implementer is deployed"
        }
      }
    }
  },
  "userdoc": {
    "methods": {
      "constructor": "Constructor that takes an argument of the ERC1820RegistryAddress"
    }
  }
}